{
  "_format": "hh-sol-artifact-1",
  "contractName": "TaskContract",
  "sourceName": "contracts/TaskContract.sol",
  "abi": [
    {
      "anonymous": false,
      "inputs": [
        {
          "indexed": false,
          "internalType": "address",
          "name": "recipient",
          "type": "address"
        },
        {
          "indexed": false,
          "internalType": "uint256",
          "name": "taskId",
          "type": "uint256"
        }
      ],
      "name": "AddTask",
      "type": "event"
    },
    {
      "anonymous": false,
      "inputs": [
        {
          "indexed": false,
          "internalType": "uint256",
          "name": "taskId",
          "type": "uint256"
        },
        {
          "indexed": false,
          "internalType": "bool",
          "name": "isDeleted",
          "type": "bool"
        }
      ],
      "name": "DeleteTask",
      "type": "event"
    },
    {
      "inputs": [],
      "name": "GetMyTasks",
      "outputs": [
        {
          "components": [
            {
              "internalType": "uint256",
              "name": "id",
              "type": "uint256"
            },
            {
              "internalType": "string",
              "name": "taskText",
              "type": "string"
            },
            {
              "internalType": "bool",
              "name": "isDeleted",
              "type": "bool"
            }
          ],
          "internalType": "struct TaskContract.Task[]",
          "name": "",
          "type": "tuple[]"
        }
      ],
      "stateMutability": "view",
      "type": "function"
    },
    {
      "inputs": [
        {
          "internalType": "string",
          "name": "taskText",
          "type": "string"
        },
        {
          "internalType": "bool",
          "name": "isDeleted",
          "type": "bool"
        }
      ],
      "name": "addTask",
      "outputs": [],
      "stateMutability": "nonpayable",
      "type": "function"
    },
    {
      "inputs": [
        {
          "internalType": "uint256",
          "name": "taskId",
          "type": "uint256"
        },
        {
          "internalType": "bool",
          "name": "isDeleted",
          "type": "bool"
        }
      ],
      "name": "deleteTask",
      "outputs": [],
      "stateMutability": "nonpayable",
      "type": "function"
    }
  ],
  "bytecode": "0x608060405234801561001057600080fd5b50610c89806100206000396000f3fe608060405234801561001057600080fd5b50600436106100415760003560e01c806320df4581146100465780639a1912b514610062578063aaba290714610080575b600080fd5b610060600480360381019061005b91906107ee565b61009c565b005b61006a6101c6565b6040516100779190610a0c565b60405180910390f35b61009a60048036038101906100959190610a5a565b6104bc565b005b600080805490509050600060405180606001604052808381526020018581526020018415158152509080600181540180825580915050600190039060005260206000209060030201600090919091909150600082015181600001556020820151816001019080519060200190610113929190610596565b5060408201518160020160006101000a81548160ff0219169083151502179055505050336001600083815260200190815260200160002060006101000a81548173ffffffffffffffffffffffffffffffffffffffff021916908373ffffffffffffffffffffffffffffffffffffffff1602179055507f1f54e1ba1832d428fbd7e7792beaf62b1fc5a382c207ffd614209c1413e94fda33826040516101b9929190610aea565b60405180910390a1505050565b60606000808054905067ffffffffffffffff8111156101e8576101e761068b565b5b60405190808252806020026020018201604052801561022157816020015b61020e61061c565b8152602001906001900390816102065790505b5090506000805b600080549050811015610402573373ffffffffffffffffffffffffffffffffffffffff166001600083815260200190815260200160002060009054906101000a900473ffffffffffffffffffffffffffffffffffffffff1673ffffffffffffffffffffffffffffffffffffffff161480156102d9575060001515600082815481106102b6576102b5610b13565b5b906000526020600020906003020160020160009054906101000a900460ff161515145b156103ef57600081815481106102f2576102f1610b13565b5b90600052602060002090600302016040518060600160405290816000820154815260200160018201805461032590610b71565b80601f016020809104026020016040519081016040528092919081815260200182805461035190610b71565b801561039e5780601f106103735761010080835404028352916020019161039e565b820191906000526020600020905b81548152906001019060200180831161038157829003601f168201915b505050505081526020016002820160009054906101000a900460ff1615151515815250508383815181106103d5576103d4610b13565b5b602002602001018190525081806103eb90610bd2565b9250505b80806103fa90610bd2565b915050610228565b5060008167ffffffffffffffff81111561041f5761041e61068b565b5b60405190808252806020026020018201604052801561045857816020015b61044561061c565b81526020019060019003908161043d5790505b50905060005b828110156104b25783818151811061047957610478610b13565b5b602002602001015182828151811061049457610493610b13565b5b602002602001018190525080806104aa90610bd2565b91505061045e565b5080935050505090565b3373ffffffffffffffffffffffffffffffffffffffff166001600084815260200190815260200160002060009054906101000a900473ffffffffffffffffffffffffffffffffffffffff1673ffffffffffffffffffffffffffffffffffffffff161415610592578015156000838154811061053a57610539610b13565b5b906000526020600020906003020160020160009054906101000a905050507ff88a35c3d2016c409a46570b994a17b408dbc83c14a03f521512d50b85386d068282604051610589929190610c2a565b60405180910390a15b5050565b8280546105a290610b71565b90600052602060002090601f0160209004810192826105c4576000855561060b565b82601f106105dd57805160ff191683800117855561060b565b8280016001018555821561060b579182015b8281111561060a5782518255916020019190600101906105ef565b5b509050610618919061063f565b5090565b604051806060016040528060008152602001606081526020016000151581525090565b5b80821115610658576000816000905550600101610640565b5090565b6000604051905090565b600080fd5b600080fd5b600080fd5b600080fd5b6000601f19601f8301169050919050565b7f4e487b7100000000000000000000000000000000000000000000000000000000600052604160045260246000fd5b6106c38261067a565b810181811067ffffffffffffffff821117156106e2576106e161068b565b5b80604052505050565b60006106f561065c565b905061070182826106ba565b919050565b600067ffffffffffffffff8211156107215761072061068b565b5b61072a8261067a565b9050602081019050919050565b82818337600083830152505050565b600061075961075484610706565b6106eb565b90508281526020810184848401111561077557610774610675565b5b610780848285610737565b509392505050565b600082601f83011261079d5761079c610670565b5b81356107ad848260208601610746565b91505092915050565b60008115159050919050565b6107cb816107b6565b81146107d657600080fd5b50565b6000813590506107e8816107c2565b92915050565b6000806040838503121561080557610804610666565b5b600083013567ffffffffffffffff8111156108235761082261066b565b5b61082f85828601610788565b9250506020610840858286016107d9565b9150509250929050565b600081519050919050565b600082825260208201905092915050565b6000819050602082019050919050565b6000819050919050565b61088981610876565b82525050565b600081519050919050565b600082825260208201905092915050565b60005b838110156108c95780820151818401526020810190506108ae565b838111156108d8576000848401525b50505050565b60006108e98261088f565b6108f3818561089a565b93506109038185602086016108ab565b61090c8161067a565b840191505092915050565b610920816107b6565b82525050565b600060608301600083015161093e6000860182610880565b506020830151848203602086015261095682826108de565b915050604083015161096b6040860182610917565b508091505092915050565b60006109828383610926565b905092915050565b6000602082019050919050565b60006109a28261084a565b6109ac8185610855565b9350836020820285016109be85610866565b8060005b858110156109fa57848403895281516109db8582610976565b94506109e68361098a565b925060208a019950506001810190506109c2565b50829750879550505050505092915050565b60006020820190508181036000830152610a268184610997565b905092915050565b610a3781610876565b8114610a4257600080fd5b50565b600081359050610a5481610a2e565b92915050565b60008060408385031215610a7157610a70610666565b5b6000610a7f85828601610a45565b9250506020610a90858286016107d9565b9150509250929050565b600073ffffffffffffffffffffffffffffffffffffffff82169050919050565b6000610ac582610a9a565b9050919050565b610ad581610aba565b82525050565b610ae481610876565b82525050565b6000604082019050610aff6000830185610acc565b610b0c6020830184610adb565b9392505050565b7f4e487b7100000000000000000000000000000000000000000000000000000000600052603260045260246000fd5b7f4e487b7100000000000000000000000000000000000000000000000000000000600052602260045260246000fd5b60006002820490506001821680610b8957607f821691505b60208210811415610b9d57610b9c610b42565b5b50919050565b7f4e487b7100000000000000000000000000000000000000000000000000000000600052601160045260246000fd5b6000610bdd82610876565b91507fffffffffffffffffffffffffffffffffffffffffffffffffffffffffffffffff821415610c1057610c0f610ba3565b5b600182019050919050565b610c24816107b6565b82525050565b6000604082019050610c3f6000830185610adb565b610c4c6020830184610c1b565b939250505056fea264697066735822122061fef7f2f30d95e63c1727b8125cdb17e2cedc135be06d350d47bb8698a5bd9364736f6c63430008090033",
  "linkReferences": {},
  "deployedLinkReferences": {}
}